{
  "_format": "hh-sol-artifact-1",
  "contractName": "AgentScore",
  "sourceName": "contracts/AgentScore.sol",
  "abi": [
    {
      "inputs": [],
      "stateMutability": "nonpayable",
      "type": "constructor"
    },
    {
      "inputs": [
        {
          "internalType": "address",
          "name": "owner",
          "type": "address"
        }
      ],
      "name": "OwnableInvalidOwner",
      "type": "error"
    },
    {
      "inputs": [
        {
          "internalType": "address",
          "name": "account",
          "type": "address"
        }
      ],
      "name": "OwnableUnauthorizedAccount",
      "type": "error"
    },
    {
      "anonymous": false,
      "inputs": [
        {
          "indexed": true,
          "internalType": "address",
          "name": "previousOwner",
          "type": "address"
        },
        {
          "indexed": true,
          "internalType": "address",
          "name": "newOwner",
          "type": "address"
        }
      ],
      "name": "OwnershipTransferred",
      "type": "event"
    },
    {
      "anonymous": false,
      "inputs": [
        {
          "indexed": true,
          "internalType": "address",
          "name": "agent",
          "type": "address"
        },
        {
          "indexed": false,
          "internalType": "uint256",
          "name": "oldScore",
          "type": "uint256"
        },
        {
          "indexed": false,
          "internalType": "uint256",
          "name": "newScore",
          "type": "uint256"
        }
      ],
      "name": "ScoreUpdated",
      "type": "event"
    },
    {
      "inputs": [
        {
          "internalType": "address[]",
          "name": "agents",
          "type": "address[]"
        },
        {
          "internalType": "uint256[]",
          "name": "newScores",
          "type": "uint256[]"
        }
      ],
      "name": "batchUpdateScores",
      "outputs": [],
      "stateMutability": "nonpayable",
      "type": "function"
    },
    {
      "inputs": [
        {
          "internalType": "address",
          "name": "agent",
          "type": "address"
        }
      ],
      "name": "getScore",
      "outputs": [
        {
          "internalType": "uint256",
          "name": "",
          "type": "uint256"
        }
      ],
      "stateMutability": "view",
      "type": "function"
    },
    {
      "inputs": [],
      "name": "owner",
      "outputs": [
        {
          "internalType": "address",
          "name": "",
          "type": "address"
        }
      ],
      "stateMutability": "view",
      "type": "function"
    },
    {
      "inputs": [],
      "name": "renounceOwnership",
      "outputs": [],
      "stateMutability": "nonpayable",
      "type": "function"
    },
    {
      "inputs": [
        {
          "internalType": "address",
          "name": "",
          "type": "address"
        }
      ],
      "name": "scores",
      "outputs": [
        {
          "internalType": "uint256",
          "name": "",
          "type": "uint256"
        }
      ],
      "stateMutability": "view",
      "type": "function"
    },
    {
      "inputs": [
        {
          "internalType": "address",
          "name": "newOwner",
          "type": "address"
        }
      ],
      "name": "transferOwnership",
      "outputs": [],
      "stateMutability": "nonpayable",
      "type": "function"
    },
    {
      "inputs": [
        {
          "internalType": "address",
          "name": "agent",
          "type": "address"
        },
        {
          "internalType": "uint256",
          "name": "newScore",
          "type": "uint256"
        }
      ],
      "name": "updateScore",
      "outputs": [],
      "stateMutability": "nonpayable",
      "type": "function"
    }
  ],
  "bytecode": "0x608060405234801561001057600080fd5b50338061003757604051631e4fbdf760e01b81526000600482015260240160405180910390fd5b61004081610046565b50610096565b600080546001600160a01b038381166001600160a01b0319831681178455604051919092169283917f8be0079c531659141344cd1fd0a4f28419497f9722a3daafe3b4186f6b6457e09190a35050565b61065c806100a56000396000f3fe608060405234801561001057600080fd5b506004361061007d5760003560e01c806376dd110f1161005b57806376dd110f146100b25780638da5cb5b146100e5578063d47875d014610100578063f2fde38b1461012957600080fd5b8063340458da1461008257806365d9772414610097578063715018a6146100aa575b600080fd5b610095610090366004610515565b61013c565b005b6100956100a536600461059d565b610349565b6100956103fa565b6100d26100c03660046105c7565b60016020526000908152604090205481565b6040519081526020015b60405180910390f35b6000546040516001600160a01b0390911681526020016100dc565b6100d261010e3660046105c7565b6001600160a01b031660009081526001602052604090205490565b6100956101373660046105c7565b61040e565b61014461044c565b82811461018a5760405162461bcd60e51b815260206004820152600f60248201526e098cadccee8d040dad2e6dac2e8c6d608b1b60448201526064015b60405180910390fd5b60005b83811015610342576103e88383838181106101aa576101aa6105e9565b9050602002013511156101f75760405162461bcd60e51b8152602060048201526015602482015274053636f7265206d757374206265203c3d203130303605c1b6044820152606401610181565b60006001600087878581811061020f5761020f6105e9565b905060200201602081019061022491906105c7565b6001600160a01b03166001600160a01b03168152602001908152602001600020549050838383818110610259576102596105e9565b9050602002013560016000888886818110610276576102766105e9565b905060200201602081019061028b91906105c7565b6001600160a01b031681526020810191909152604001600020558585838181106102b7576102b76105e9565b90506020020160208101906102cc91906105c7565b6001600160a01b03167f91878448ef87c3db4aeb83e60e7deb1240ecae3fd04975ec93547398514cb4ed82868686818110610309576103096105e9565b90506020020135604051610327929190918252602082015260400190565b60405180910390a2508061033a816105ff565b91505061018d565b5050505050565b61035161044c565b6103e881111561039b5760405162461bcd60e51b8152602060048201526015602482015274053636f7265206d757374206265203c3d203130303605c1b6044820152606401610181565b6001600160a01b038216600081815260016020908152604091829020805490859055825181815291820185905292917f91878448ef87c3db4aeb83e60e7deb1240ecae3fd04975ec93547398514cb4ed910160405180910390a2505050565b61040261044c565b61040c6000610479565b565b61041661044c565b6001600160a01b03811661044057604051631e4fbdf760e01b815260006004820152602401610181565b61044981610479565b50565b6000546001600160a01b0316331461040c5760405163118cdaa760e01b8152336004820152602401610181565b600080546001600160a01b038381166001600160a01b0319831681178455604051919092169283917f8be0079c531659141344cd1fd0a4f28419497f9722a3daafe3b4186f6b6457e09190a35050565b60008083601f8401126104db57600080fd5b50813567ffffffffffffffff8111156104f357600080fd5b6020830191508360208260051b850101111561050e57600080fd5b9250929050565b6000806000806040858703121561052b57600080fd5b843567ffffffffffffffff8082111561054357600080fd5b61054f888389016104c9565b9096509450602087013591508082111561056857600080fd5b50610575878288016104c9565b95989497509550505050565b80356001600160a01b038116811461059857600080fd5b919050565b600080604083850312156105b057600080fd5b6105b983610581565b946020939093013593505050565b6000602082840312156105d957600080fd5b6105e282610581565b9392505050565b634e487b7160e01b600052603260045260246000fd5b60006001820161061f57634e487b7160e01b600052601160045260246000fd5b506001019056fea2646970667358221220b6c12fe417267175e8c727e757cecf49b2bc26e4dae382ba3447b1ffa93170f864736f6c63430008140033",
  "linkReferences": {},
  "deployedLinkReferences": {}
}