{
  "_format": "hh-sol-artifact-1",
  "contractName": "AgentBankLending",
  "sourceName": "contracts/AgentBankLending.sol",
  "abi": [
    {
      "inputs": [
        {
          "internalType": "address",
          "name": "_usdt",
          "type": "address"
        },
        {
          "internalType": "address",
          "name": "_agentScore",
          "type": "address"
        }
      ],
      "stateMutability": "nonpayable",
      "type": "constructor"
    },
    {
      "inputs": [
        {
          "internalType": "address",
          "name": "owner",
          "type": "address"
        }
      ],
      "name": "OwnableInvalidOwner",
      "type": "error"
    },
    {
      "inputs": [
        {
          "internalType": "address",
          "name": "account",
          "type": "address"
        }
      ],
      "name": "OwnableUnauthorizedAccount",
      "type": "error"
    },
    {
      "inputs": [
        {
          "internalType": "address",
          "name": "token",
          "type": "address"
        }
      ],
      "name": "SafeERC20FailedOperation",
      "type": "error"
    },
    {
      "anonymous": false,
      "inputs": [
        {
          "indexed": true,
          "internalType": "uint256",
          "name": "loanId",
          "type": "uint256"
        },
        {
          "indexed": true,
          "internalType": "address",
          "name": "borrower",
          "type": "address"
        },
        {
          "indexed": false,
          "internalType": "uint256",
          "name": "amount",
          "type": "uint256"
        }
      ],
      "name": "FeeTokensClaimed",
      "type": "event"
    },
    {
      "anonymous": false,
      "inputs": [
        {
          "indexed": true,
          "internalType": "uint256",
          "name": "loanId",
          "type": "uint256"
        },
        {
          "indexed": true,
          "internalType": "address",
          "name": "borrower",
          "type": "address"
        }
      ],
      "name": "LoanDefaulted",
      "type": "event"
    },
    {
      "anonymous": false,
      "inputs": [
        {
          "indexed": true,
          "internalType": "uint256",
          "name": "loanId",
          "type": "uint256"
        },
        {
          "indexed": true,
          "internalType": "address",
          "name": "borrower",
          "type": "address"
        },
        {
          "indexed": false,
          "internalType": "uint256",
          "name": "totalPaid",
          "type": "uint256"
        }
      ],
      "name": "LoanRepaid",
      "type": "event"
    },
    {
      "anonymous": false,
      "inputs": [
        {
          "indexed": true,
          "internalType": "uint256",
          "name": "loanId",
          "type": "uint256"
        },
        {
          "indexed": true,
          "internalType": "address",
          "name": "borrower",
          "type": "address"
        },
        {
          "indexed": false,
          "internalType": "uint256",
          "name": "amount",
          "type": "uint256"
        },
        {
          "indexed": false,
          "internalType": "uint256",
          "name": "fee",
          "type": "uint256"
        },
        {
          "indexed": false,
          "internalType": "uint256",
          "name": "dueDate",
          "type": "uint256"
        }
      ],
      "name": "LoanRequested",
      "type": "event"
    },
    {
      "anonymous": false,
      "inputs": [
        {
          "indexed": true,
          "internalType": "address",
          "name": "previousOwner",
          "type": "address"
        },
        {
          "indexed": true,
          "internalType": "address",
          "name": "newOwner",
          "type": "address"
        }
      ],
      "name": "OwnershipTransferred",
      "type": "event"
    },
    {
      "anonymous": false,
      "inputs": [
        {
          "indexed": true,
          "internalType": "address",
          "name": "funder",
          "type": "address"
        },
        {
          "indexed": false,
          "internalType": "uint256",
          "name": "amount",
          "type": "uint256"
        }
      ],
      "name": "PoolFunded",
      "type": "event"
    },
    {
      "anonymous": false,
      "inputs": [
        {
          "indexed": true,
          "internalType": "address",
          "name": "owner",
          "type": "address"
        },
        {
          "indexed": false,
          "internalType": "uint256",
          "name": "amount",
          "type": "uint256"
        }
      ],
      "name": "PoolWithdrawn",
      "type": "event"
    },
    {
      "inputs": [],
      "name": "FEE_BPS",
      "outputs": [
        {
          "internalType": "uint256",
          "name": "",
          "type": "uint256"
        }
      ],
      "stateMutability": "view",
      "type": "function"
    },
    {
      "inputs": [],
      "name": "LOAN_DURATION",
      "outputs": [
        {
          "internalType": "uint256",
          "name": "",
          "type": "uint256"
        }
      ],
      "stateMutability": "view",
      "type": "function"
    },
    {
      "inputs": [],
      "name": "TIER1_MAX",
      "outputs": [
        {
          "internalType": "uint256",
          "name": "",
          "type": "uint256"
        }
      ],
      "stateMutability": "view",
      "type": "function"
    },
    {
      "inputs": [],
      "name": "TIER1_SCORE",
      "outputs": [
        {
          "internalType": "uint256",
          "name": "",
          "type": "uint256"
        }
      ],
      "stateMutability": "view",
      "type": "function"
    },
    {
      "inputs": [],
      "name": "TIER2_MAX",
      "outputs": [
        {
          "internalType": "uint256",
          "name": "",
          "type": "uint256"
        }
      ],
      "stateMutability": "view",
      "type": "function"
    },
    {
      "inputs": [],
      "name": "TIER2_SCORE",
      "outputs": [
        {
          "internalType": "uint256",
          "name": "",
          "type": "uint256"
        }
      ],
      "stateMutability": "view",
      "type": "function"
    },
    {
      "inputs": [],
      "name": "TIER3_MAX",
      "outputs": [
        {
          "internalType": "uint256",
          "name": "",
          "type": "uint256"
        }
      ],
      "stateMutability": "view",
      "type": "function"
    },
    {
      "inputs": [],
      "name": "TIER3_SCORE",
      "outputs": [
        {
          "internalType": "uint256",
          "name": "",
          "type": "uint256"
        }
      ],
      "stateMutability": "view",
      "type": "function"
    },
    {
      "inputs": [],
      "name": "USDT_DECIMALS",
      "outputs": [
        {
          "internalType": "uint256",
          "name": "",
          "type": "uint256"
        }
      ],
      "stateMutability": "view",
      "type": "function"
    },
    {
      "inputs": [],
      "name": "agentScore",
      "outputs": [
        {
          "internalType": "contract AgentScore",
          "name": "",
          "type": "address"
        }
      ],
      "stateMutability": "view",
      "type": "function"
    },
    {
      "inputs": [
        {
          "internalType": "address",
          "name": "",
          "type": "address"
        },
        {
          "internalType": "uint256",
          "name": "",
          "type": "uint256"
        }
      ],
      "name": "borrowerLoans",
      "outputs": [
        {
          "internalType": "uint256",
          "name": "",
          "type": "uint256"
        }
      ],
      "stateMutability": "view",
      "type": "function"
    },
    {
      "inputs": [
        {
          "internalType": "uint256",
          "name": "loanId",
          "type": "uint256"
        }
      ],
      "name": "claimFeeTokens",
      "outputs": [],
      "stateMutability": "nonpayable",
      "type": "function"
    },
    {
      "inputs": [
        {
          "internalType": "uint256",
          "name": "amount",
          "type": "uint256"
        }
      ],
      "name": "fundPool",
      "outputs": [],
      "stateMutability": "nonpayable",
      "type": "function"
    },
    {
      "inputs": [
        {
          "internalType": "address",
          "name": "borrower",
          "type": "address"
        }
      ],
      "name": "getBorrowerLoans",
      "outputs": [
        {
          "internalType": "uint256[]",
          "name": "",
          "type": "uint256[]"
        }
      ],
      "stateMutability": "view",
      "type": "function"
    },
    {
      "inputs": [
        {
          "internalType": "uint256",
          "name": "score",
          "type": "uint256"
        }
      ],
      "name": "getMaxLoan",
      "outputs": [
        {
          "internalType": "uint256",
          "name": "",
          "type": "uint256"
        }
      ],
      "stateMutability": "pure",
      "type": "function"
    },
    {
      "inputs": [
        {
          "internalType": "uint256",
          "name": "loanId",
          "type": "uint256"
        }
      ],
      "name": "liquidate",
      "outputs": [],
      "stateMutability": "nonpayable",
      "type": "function"
    },
    {
      "inputs": [
        {
          "internalType": "uint256",
          "name": "",
          "type": "uint256"
        }
      ],
      "name": "loans",
      "outputs": [
        {
          "internalType": "address",
          "name": "borrower",
          "type": "address"
        },
        {
          "internalType": "uint256",
          "name": "amount",
          "type": "uint256"
        },
        {
          "internalType": "uint256",
          "name": "fee",
          "type": "uint256"
        },
        {
          "internalType": "uint256",
          "name": "dueDate",
          "type": "uint256"
        },
        {
          "internalType": "bool",
          "name": "repaid",
          "type": "bool"
        },
        {
          "internalType": "bool",
          "name": "defaulted",
          "type": "bool"
        },
        {
          "internalType": "bool",
          "name": "feeClaimed",
          "type": "bool"
        }
      ],
      "stateMutability": "view",
      "type": "function"
    },
    {
      "inputs": [],
      "name": "owner",
      "outputs": [
        {
          "internalType": "address",
          "name": "",
          "type": "address"
        }
      ],
      "stateMutability": "view",
      "type": "function"
    },
    {
      "inputs": [],
      "name": "poolBalance",
      "outputs": [
        {
          "internalType": "uint256",
          "name": "",
          "type": "uint256"
        }
      ],
      "stateMutability": "view",
      "type": "function"
    },
    {
      "inputs": [],
      "name": "renounceOwnership",
      "outputs": [],
      "stateMutability": "nonpayable",
      "type": "function"
    },
    {
      "inputs": [
        {
          "internalType": "uint256",
          "name": "loanId",
          "type": "uint256"
        }
      ],
      "name": "repayLoan",
      "outputs": [],
      "stateMutability": "nonpayable",
      "type": "function"
    },
    {
      "inputs": [
        {
          "internalType": "uint256",
          "name": "amount",
          "type": "uint256"
        }
      ],
      "name": "requestLoan",
      "outputs": [
        {
          "internalType": "uint256",
          "name": "loanId",
          "type": "uint256"
        }
      ],
      "stateMutability": "nonpayable",
      "type": "function"
    },
    {
      "inputs": [],
      "name": "totalLoans",
      "outputs": [
        {
          "internalType": "uint256",
          "name": "",
          "type": "uint256"
        }
      ],
      "stateMutability": "view",
      "type": "function"
    },
    {
      "inputs": [
        {
          "internalType": "address",
          "name": "newOwner",
          "type": "address"
        }
      ],
      "name": "transferOwnership",
      "outputs": [],
      "stateMutability": "nonpayable",
      "type": "function"
    },
    {
      "inputs": [],
      "name": "usdt",
      "outputs": [
        {
          "internalType": "contract IERC20",
          "name": "",
          "type": "address"
        }
      ],
      "stateMutability": "view",
      "type": "function"
    },
    {
      "inputs": [
        {
          "internalType": "uint256",
          "name": "amount",
          "type": "uint256"
        }
      ],
      "name": "withdrawPool",
      "outputs": [],
      "stateMutability": "nonpayable",
      "type": "function"
    }
  ],
  "bytecode": "0x60c06040523480156200001157600080fd5b506040516200150d3803806200150d8339810160408190526200003491620000ec565b33806200005b57604051631e4fbdf760e01b81526000600482015260240160405180910390fd5b62000066816200007f565b506001600160a01b039182166080521660a05262000124565b600080546001600160a01b038381166001600160a01b0319831681178455604051919092169283917f8be0079c531659141344cd1fd0a4f28419497f9722a3daafe3b4186f6b6457e09190a35050565b80516001600160a01b0381168114620000e757600080fd5b919050565b600080604083850312156200010057600080fd5b6200010b83620000cf565b91506200011b60208401620000cf565b90509250929050565b60805160a051611384620001896000396000818161022501526105980152600081816101be01528181610502015281816106c50152818161092b01528181610aec01528181610bc701528181610c5301528181610dd10152610ea301526113846000f3fe608060405234801561001057600080fd5b506004361061018e5760003560e01c8063b7ca2263116100de578063e02a4dfd11610097578063eee8b7ff11610071578063eee8b7ff14610369578063ef2cfd1a14610389578063f2fde38b14610391578063f64ff5b0146103a457600080fd5b8063e02a4dfd146102f4578063e1ec3c68146102fe578063e3ed19021461035657600080fd5b8063b7ca2263146102ab578063bf333f2c146102b4578063bfbe0bc4146102bd578063cc952b57146102c6578063d9e1efdd146102ce578063da3a5f72146102e157600080fd5b80635ecd37e21161014b5780638da5cb5b116101255780638da5cb5b1461026c57806395d48cc51461027d57806396365d4414610290578063ab7b1c891461029857600080fd5b80635ecd37e214610247578063715018a6146102515780638d5d34291461025957600080fd5b8063160de5a61461019357806324ebae69146101af5780632f48ab7d146101b9578063415f1240146101f85780634c034ea91461020d5780635337237c14610220575b600080fd5b61019c6101f481565b6040519081526020015b60405180910390f35b61019c6207a12081565b6101e07f000000000000000000000000000000000000000000000000000000000000000081565b6040516001600160a01b0390911681526020016101a6565b61020b6102063660046111ca565b6103ae565b005b61020b61021b3660046111ca565b6104ed565b6101e07f000000000000000000000000000000000000000000000000000000000000000081565b61019c621e848081565b61020b610562565b61019c6102673660046111ca565b610576565b6000546001600160a01b03166101e0565b61020b61028b3660046111ca565b6109a0565b61019c610c3b565b61020b6102a63660046111ca565b610ccb565b61019c61019081565b61019c6105dc81565b61019c61012c81565b60015461019c565b61019c6102dc3660046111ca565b610e4b565b61020b6102ef3660046111ca565b610e8e565b61019c6212750081565b61031161030c3660046111ca565b610efd565b604080516001600160a01b039098168852602088019690965294860193909352606085019190915215156080840152151560a0830152151560c082015260e0016101a6565b61019c6103643660046111ff565b610f5e565b61037c610377366004611229565b610f8f565b6040516101a6919061124b565b61019c600681565b61020b61039f366004611229565b610ffb565b61019c624c4b4081565b6103b6611039565b6000600182815481106103cb576103cb61128f565b60009182526020909120600590910201600481015490915060ff161561040c5760405162461bcd60e51b8152600401610403906112a5565b60405180910390fd5b6004810154610100900460ff161561045a5760405162461bcd60e51b8152602060048201526011602482015270105b1c9958591e48191959985d5b1d1959607a1b6044820152606401610403565b8060030154421161049f5760405162461bcd60e51b815260206004820152600f60248201526e4e6f7420796574206f76657264756560881b6044820152606401610403565b60048101805461ff00191661010017905580546040516001600160a01b039091169083907f13b88e6866f0156d706fecfa22b678de5fc2b749c1d2307f6f47eb541385f1ec90600090a35050565b6104f5611039565b6105296001600160a01b037f0000000000000000000000000000000000000000000000000000000000000000163383611066565b60405181815233907f6f07e6169c1653554eb707b6f6cd8f7ccf9cc29e54a0d8a71d9d5867d2057ac2906020015b60405180910390a250565b61056a611039565b61057460006110ca565b565b604051630d47875d60e41b815233600482015260009081906001600160a01b037f0000000000000000000000000000000000000000000000000000000000000000169063d47875d090602401602060405180830381865afa1580156105df573d6000803e3d6000fd5b505050506040513d601f19601f8201168201806040525081019061060391906112cd565b9050600061061082610e4b565b9050600081116106525760405162461bcd60e51b815260206004820152600d60248201526c53636f726520746f6f206c6f7760981b6044820152606401610403565b6000841180156106625750808411155b6106ae5760405162461bcd60e51b815260206004820152601960248201527f416d6f756e7420657863656564732074696572206c696d6974000000000000006044820152606401610403565b6040516370a0823160e01b815230600482015284907f00000000000000000000000000000000000000000000000000000000000000006001600160a01b0316906370a0823190602401602060405180830381865afa158015610714573d6000803e3d6000fd5b505050506040513d601f19601f8201168201806040525081019061073891906112cd565b101561077a5760405162461bcd60e51b8152602060048201526011602482015270125b9cdd59999a58da595b9d081c1bdbdb607a1b6044820152606401610403565b600061271061078b6105dc876112fc565b6107959190611319565b905060006107a6621275004261133b565b600180546040805160e0810182523380825260208083018d81528385018a81526060850189815260006080870181815260a0880182815260c089018381528b8d018d558c8452985160058c027fb10e2d527612073b26eecdfd717e6a320cf44b4afac2b0732d9fcbe2b7fa0cf6810180546001600160a01b039384166001600160a01b031990911617905596517fb10e2d527612073b26eecdfd717e6a320cf44b4afac2b0732d9fcbe2b7fa0cf788015594517fb10e2d527612073b26eecdfd717e6a320cf44b4afac2b0732d9fcbe2b7fa0cf887015592517fb10e2d527612073b26eecdfd717e6a320cf44b4afac2b0732d9fcbe2b7fa0cf9860155517fb10e2d527612073b26eecdfd717e6a320cf44b4afac2b0732d9fcbe2b7fa0cfa9094018054925197511515620100000262ff0000199815156101000261ff00199615159690961661ffff199094169390931794909417969096161790915582845260028252938320805496870181558352909120909301829055909750919250610952917f0000000000000000000000000000000000000000000000000000000000000000169088611066565b6040805187815260208101849052908101829052339086907ff6cc19e46a340ab5888d736bfc79aef72ae92d12d7b76319d72b0abc170868e69060600160405180910390a350505050919050565b6000600182815481106109b5576109b561128f565b6000918252602090912060059091020180549091506001600160a01b03163314610a115760405162461bcd60e51b815260206004820152600d60248201526c2737ba103cb7bab9103637b0b760991b6044820152606401610403565b600481015460ff1615610a365760405162461bcd60e51b8152600401610403906112a5565b6004810154610100900460ff1615610a815760405162461bcd60e51b815260206004820152600e60248201526d131bd85b88191959985d5b1d195960921b6044820152606401610403565b600481015462010000900460ff1615610ad25760405162461bcd60e51b815260206004820152601360248201527211995948185b1c9958591e4818db185a5b5959606a1b6044820152606401610403565b60028101546040516370a0823160e01b81523060048201527f00000000000000000000000000000000000000000000000000000000000000006001600160a01b0316906370a0823190602401602060405180830381865afa158015610b3b573d6000803e3d6000fd5b505050506040513d601f19601f82011682018060405250810190610b5f91906112cd565b1015610ba15760405162461bcd60e51b8152602060048201526011602482015270125b9cdd59999a58da595b9d081c1bdbdb607a1b6044820152606401610403565b60048101805462ff00001916620100001790556002810154610bef906001600160a01b037f000000000000000000000000000000000000000000000000000000000000000016903390611066565b336001600160a01b0316827f96890c5dc1f6ec16c00485cbc7ada84f8855bba096c5c1446539993f1a4edaba8360020154604051610c2f91815260200190565b60405180910390a35050565b6040516370a0823160e01b81523060048201526000907f00000000000000000000000000000000000000000000000000000000000000006001600160a01b0316906370a0823190602401602060405180830381865afa158015610ca2573d6000803e3d6000fd5b505050506040513d601f19601f82011682018060405250810190610cc691906112cd565b905090565b600060018281548110610ce057610ce061128f565b6000918252602090912060059091020180549091506001600160a01b03163314610d3c5760405162461bcd60e51b815260206004820152600d60248201526c2737ba103cb7bab9103637b0b760991b6044820152606401610403565b600481015460ff1615610d615760405162461bcd60e51b8152600401610403906112a5565b6004810154610100900460ff1615610dac5760405162461bcd60e51b815260206004820152600e60248201526d131bd85b88191959985d5b1d195960921b6044820152606401610403565b600081600201548260010154610dc2919061133b565b9050610df96001600160a01b037f00000000000000000000000000000000000000000000000000000000000000001633308461111a565b60048201805460ff19166001179055604051339084907f512d3e65b3e58c2187bb1872aa435dba5bd09c1c03823ba56ab70aac411e4a2190610e3e9085815260200190565b60405180910390a3505050565b60006101f48210610e605750624c4b40919050565b6101908210610e735750621e8480919050565b61012c8210610e8657506207a120919050565b506000919050565b610e96611039565b610ecb6001600160a01b037f00000000000000000000000000000000000000000000000000000000000000001633308461111a565b60405181815233907f32173d8e51cec3a6fe484b7a1c3febe760cdf96e03d4cca36a43563a4333e83890602001610557565b60018181548110610f0d57600080fd5b6000918252602090912060059091020180546001820154600283015460038401546004909401546001600160a01b0390931694509092909160ff808216916101008104821691620100009091041687565b60026020528160005260406000208181548110610f7a57600080fd5b90600052602060002001600091509150505481565b6001600160a01b038116600090815260026020908152604091829020805483518184028101840190945280845260609392830182828015610fef57602002820191906000526020600020905b815481526020019060010190808311610fdb575b50505050509050919050565b611003611039565b6001600160a01b03811661102d57604051631e4fbdf760e01b815260006004820152602401610403565b611036816110ca565b50565b6000546001600160a01b031633146105745760405163118cdaa760e01b8152336004820152602401610403565b6040516001600160a01b038381166024830152604482018390526110c591859182169063a9059cbb906064015b604051602081830303815290604052915060e01b6020820180516001600160e01b038381831617835250505050611159565b505050565b600080546001600160a01b038381166001600160a01b0319831681178455604051919092169283917f8be0079c531659141344cd1fd0a4f28419497f9722a3daafe3b4186f6b6457e09190a35050565b6040516001600160a01b0384811660248301528381166044830152606482018390526111539186918216906323b872dd90608401611093565b50505050565b600080602060008451602086016000885af18061117c576040513d6000823e3d81fd5b50506000513d915081156111945780600114156111a1565b6001600160a01b0384163b155b1561115357604051635274afe760e01b81526001600160a01b0385166004820152602401610403565b6000602082840312156111dc57600080fd5b5035919050565b80356001600160a01b03811681146111fa57600080fd5b919050565b6000806040838503121561121257600080fd5b61121b836111e3565b946020939093013593505050565b60006020828403121561123b57600080fd5b611244826111e3565b9392505050565b6020808252825182820181905260009190848201906040850190845b8181101561128357835183529284019291840191600101611267565b50909695505050505050565b634e487b7160e01b600052603260045260246000fd5b6020808252600e908201526d105b1c9958591e481c995c185a5960921b604082015260600190565b6000602082840312156112df57600080fd5b5051919050565b634e487b7160e01b600052601160045260246000fd5b8082028115828204841417611313576113136112e6565b92915050565b60008261133657634e487b7160e01b600052601260045260246000fd5b500490565b80820180821115611313576113136112e656fea2646970667358221220d49e88009e31e89d6d1d8080f33cbe500160d76255090e7fdf9d27db8d654c6c64736f6c63430008140033",
  "linkReferences": {},
  "deployedLinkReferences": {}
}