{
  "_format": "hh-sol-artifact-1",
  "contractName": "AgentBankLending",
  "sourceName": "contracts/AgentBankLending.sol",
  "abi": [
    {
      "inputs": [
        {
          "internalType": "address",
          "name": "_usdt",
          "type": "address"
        },
        {
          "internalType": "address",
          "name": "_agentScore",
          "type": "address"
        }
      ],
      "stateMutability": "nonpayable",
      "type": "constructor"
    },
    {
      "inputs": [
        {
          "internalType": "address",
          "name": "owner",
          "type": "address"
        }
      ],
      "name": "OwnableInvalidOwner",
      "type": "error"
    },
    {
      "inputs": [
        {
          "internalType": "address",
          "name": "account",
          "type": "address"
        }
      ],
      "name": "OwnableUnauthorizedAccount",
      "type": "error"
    },
    {
      "inputs": [
        {
          "internalType": "address",
          "name": "token",
          "type": "address"
        }
      ],
      "name": "SafeERC20FailedOperation",
      "type": "error"
    },
    {
      "anonymous": false,
      "inputs": [
        {
          "indexed": true,
          "internalType": "uint256",
          "name": "loanId",
          "type": "uint256"
        },
        {
          "indexed": true,
          "internalType": "address",
          "name": "borrower",
          "type": "address"
        }
      ],
      "name": "LoanDefaulted",
      "type": "event"
    },
    {
      "anonymous": false,
      "inputs": [
        {
          "indexed": true,
          "internalType": "uint256",
          "name": "loanId",
          "type": "uint256"
        },
        {
          "indexed": true,
          "internalType": "address",
          "name": "borrower",
          "type": "address"
        },
        {
          "indexed": false,
          "internalType": "uint256",
          "name": "totalPaid",
          "type": "uint256"
        }
      ],
      "name": "LoanRepaid",
      "type": "event"
    },
    {
      "anonymous": false,
      "inputs": [
        {
          "indexed": true,
          "internalType": "uint256",
          "name": "loanId",
          "type": "uint256"
        },
        {
          "indexed": true,
          "internalType": "address",
          "name": "borrower",
          "type": "address"
        },
        {
          "indexed": false,
          "internalType": "uint256",
          "name": "amount",
          "type": "uint256"
        },
        {
          "indexed": false,
          "internalType": "uint256",
          "name": "fee",
          "type": "uint256"
        },
        {
          "indexed": false,
          "internalType": "uint256",
          "name": "dueDate",
          "type": "uint256"
        }
      ],
      "name": "LoanRequested",
      "type": "event"
    },
    {
      "anonymous": false,
      "inputs": [
        {
          "indexed": true,
          "internalType": "address",
          "name": "previousOwner",
          "type": "address"
        },
        {
          "indexed": true,
          "internalType": "address",
          "name": "newOwner",
          "type": "address"
        }
      ],
      "name": "OwnershipTransferred",
      "type": "event"
    },
    {
      "anonymous": false,
      "inputs": [
        {
          "indexed": true,
          "internalType": "address",
          "name": "funder",
          "type": "address"
        },
        {
          "indexed": false,
          "internalType": "uint256",
          "name": "amount",
          "type": "uint256"
        }
      ],
      "name": "PoolFunded",
      "type": "event"
    },
    {
      "anonymous": false,
      "inputs": [
        {
          "indexed": true,
          "internalType": "address",
          "name": "owner",
          "type": "address"
        },
        {
          "indexed": false,
          "internalType": "uint256",
          "name": "amount",
          "type": "uint256"
        }
      ],
      "name": "PoolWithdrawn",
      "type": "event"
    },
    {
      "inputs": [],
      "name": "FEE_BPS",
      "outputs": [
        {
          "internalType": "uint256",
          "name": "",
          "type": "uint256"
        }
      ],
      "stateMutability": "view",
      "type": "function"
    },
    {
      "inputs": [],
      "name": "LOAN_DURATION",
      "outputs": [
        {
          "internalType": "uint256",
          "name": "",
          "type": "uint256"
        }
      ],
      "stateMutability": "view",
      "type": "function"
    },
    {
      "inputs": [],
      "name": "TIER1_MAX",
      "outputs": [
        {
          "internalType": "uint256",
          "name": "",
          "type": "uint256"
        }
      ],
      "stateMutability": "view",
      "type": "function"
    },
    {
      "inputs": [],
      "name": "TIER1_SCORE",
      "outputs": [
        {
          "internalType": "uint256",
          "name": "",
          "type": "uint256"
        }
      ],
      "stateMutability": "view",
      "type": "function"
    },
    {
      "inputs": [],
      "name": "TIER2_MAX",
      "outputs": [
        {
          "internalType": "uint256",
          "name": "",
          "type": "uint256"
        }
      ],
      "stateMutability": "view",
      "type": "function"
    },
    {
      "inputs": [],
      "name": "TIER2_SCORE",
      "outputs": [
        {
          "internalType": "uint256",
          "name": "",
          "type": "uint256"
        }
      ],
      "stateMutability": "view",
      "type": "function"
    },
    {
      "inputs": [],
      "name": "TIER3_MAX",
      "outputs": [
        {
          "internalType": "uint256",
          "name": "",
          "type": "uint256"
        }
      ],
      "stateMutability": "view",
      "type": "function"
    },
    {
      "inputs": [],
      "name": "TIER3_SCORE",
      "outputs": [
        {
          "internalType": "uint256",
          "name": "",
          "type": "uint256"
        }
      ],
      "stateMutability": "view",
      "type": "function"
    },
    {
      "inputs": [],
      "name": "USDT_DECIMALS",
      "outputs": [
        {
          "internalType": "uint256",
          "name": "",
          "type": "uint256"
        }
      ],
      "stateMutability": "view",
      "type": "function"
    },
    {
      "inputs": [],
      "name": "agentScore",
      "outputs": [
        {
          "internalType": "contract AgentScore",
          "name": "",
          "type": "address"
        }
      ],
      "stateMutability": "view",
      "type": "function"
    },
    {
      "inputs": [
        {
          "internalType": "address",
          "name": "",
          "type": "address"
        },
        {
          "internalType": "uint256",
          "name": "",
          "type": "uint256"
        }
      ],
      "name": "borrowerLoans",
      "outputs": [
        {
          "internalType": "uint256",
          "name": "",
          "type": "uint256"
        }
      ],
      "stateMutability": "view",
      "type": "function"
    },
    {
      "inputs": [
        {
          "internalType": "uint256",
          "name": "amount",
          "type": "uint256"
        }
      ],
      "name": "fundPool",
      "outputs": [],
      "stateMutability": "nonpayable",
      "type": "function"
    },
    {
      "inputs": [
        {
          "internalType": "address",
          "name": "borrower",
          "type": "address"
        }
      ],
      "name": "getBorrowerLoans",
      "outputs": [
        {
          "internalType": "uint256[]",
          "name": "",
          "type": "uint256[]"
        }
      ],
      "stateMutability": "view",
      "type": "function"
    },
    {
      "inputs": [
        {
          "internalType": "uint256",
          "name": "score",
          "type": "uint256"
        }
      ],
      "name": "getMaxLoan",
      "outputs": [
        {
          "internalType": "uint256",
          "name": "",
          "type": "uint256"
        }
      ],
      "stateMutability": "pure",
      "type": "function"
    },
    {
      "inputs": [
        {
          "internalType": "uint256",
          "name": "loanId",
          "type": "uint256"
        }
      ],
      "name": "liquidate",
      "outputs": [],
      "stateMutability": "nonpayable",
      "type": "function"
    },
    {
      "inputs": [
        {
          "internalType": "uint256",
          "name": "",
          "type": "uint256"
        }
      ],
      "name": "loans",
      "outputs": [
        {
          "internalType": "address",
          "name": "borrower",
          "type": "address"
        },
        {
          "internalType": "uint256",
          "name": "amount",
          "type": "uint256"
        },
        {
          "internalType": "uint256",
          "name": "fee",
          "type": "uint256"
        },
        {
          "internalType": "uint256",
          "name": "dueDate",
          "type": "uint256"
        },
        {
          "internalType": "bool",
          "name": "repaid",
          "type": "bool"
        },
        {
          "internalType": "bool",
          "name": "defaulted",
          "type": "bool"
        }
      ],
      "stateMutability": "view",
      "type": "function"
    },
    {
      "inputs": [],
      "name": "owner",
      "outputs": [
        {
          "internalType": "address",
          "name": "",
          "type": "address"
        }
      ],
      "stateMutability": "view",
      "type": "function"
    },
    {
      "inputs": [],
      "name": "poolBalance",
      "outputs": [
        {
          "internalType": "uint256",
          "name": "",
          "type": "uint256"
        }
      ],
      "stateMutability": "view",
      "type": "function"
    },
    {
      "inputs": [],
      "name": "renounceOwnership",
      "outputs": [],
      "stateMutability": "nonpayable",
      "type": "function"
    },
    {
      "inputs": [
        {
          "internalType": "uint256",
          "name": "loanId",
          "type": "uint256"
        }
      ],
      "name": "repayLoan",
      "outputs": [],
      "stateMutability": "nonpayable",
      "type": "function"
    },
    {
      "inputs": [
        {
          "internalType": "uint256",
          "name": "amount",
          "type": "uint256"
        }
      ],
      "name": "requestLoan",
      "outputs": [
        {
          "internalType": "uint256",
          "name": "loanId",
          "type": "uint256"
        }
      ],
      "stateMutability": "nonpayable",
      "type": "function"
    },
    {
      "inputs": [],
      "name": "totalLoans",
      "outputs": [
        {
          "internalType": "uint256",
          "name": "",
          "type": "uint256"
        }
      ],
      "stateMutability": "view",
      "type": "function"
    },
    {
      "inputs": [
        {
          "internalType": "address",
          "name": "newOwner",
          "type": "address"
        }
      ],
      "name": "transferOwnership",
      "outputs": [],
      "stateMutability": "nonpayable",
      "type": "function"
    },
    {
      "inputs": [],
      "name": "usdt",
      "outputs": [
        {
          "internalType": "contract IERC20",
          "name": "",
          "type": "address"
        }
      ],
      "stateMutability": "view",
      "type": "function"
    },
    {
      "inputs": [
        {
          "internalType": "uint256",
          "name": "amount",
          "type": "uint256"
        }
      ],
      "name": "withdrawPool",
      "outputs": [],
      "stateMutability": "nonpayable",
      "type": "function"
    }
  ],
  "bytecode": "0x60c060405234801561001057600080fd5b5060405161120e38038061120e83398101604081905261002f916100e2565b338061005557604051631e4fbdf760e01b81526000600482015260240160405180910390fd5b61005e81610076565b506001600160a01b039182166080521660a052610115565b600080546001600160a01b038381166001600160a01b0319831681178455604051919092169283917f8be0079c531659141344cd1fd0a4f28419497f9722a3daafe3b4186f6b6457e09190a35050565b80516001600160a01b03811681146100dd57600080fd5b919050565b600080604083850312156100f557600080fd5b6100fe836100c6565b915061010c602084016100c6565b90509250929050565b60805160a0516110a361016b6000396000818161020a015261057d0152600081816101a3015281816104e7015281816106aa015281816108f60152818161098301528181610b220152610bf401526110a36000f3fe608060405234801561001057600080fd5b50600436106101735760003560e01c8063b7ca2263116100de578063e02a4dfd11610097578063eee8b7ff11610071578063eee8b7ff14610331578063ef2cfd1a14610351578063f2fde38b14610359578063f64ff5b01461036c57600080fd5b8063e02a4dfd146102c6578063e1ec3c68146102d0578063e3ed19021461031e57600080fd5b8063b7ca22631461027d578063bf333f2c14610286578063bfbe0bc41461028f578063cc952b5714610298578063d9e1efdd146102a0578063da3a5f72146102b357600080fd5b80635ecd37e2116101305780635ecd37e21461022c578063715018a6146102365780638d5d34291461023e5780638da5cb5b1461025157806396365d4414610262578063ab7b1c891461026a57600080fd5b8063160de5a61461017857806324ebae69146101945780632f48ab7d1461019e578063415f1240146101dd5780634c034ea9146101f25780635337237c14610205575b600080fd5b6101816101f481565b6040519081526020015b60405180910390f35b6101816207a12081565b6101c57f000000000000000000000000000000000000000000000000000000000000000081565b6040516001600160a01b03909116815260200161018b565b6101f06101eb366004610f11565b610376565b005b6101f0610200366004610f11565b6104d2565b6101c57f000000000000000000000000000000000000000000000000000000000000000081565b610181621e848081565b6101f0610547565b61018161024c366004610f11565b61055b565b6000546001600160a01b03166101c5565b61018161096b565b6101f0610278366004610f11565b6109fb565b61018161019081565b6101816105dc81565b61018161012c81565b600154610181565b6101816102ae366004610f11565b610b9c565b6101f06102c1366004610f11565b610bdf565b6101816212750081565b6102e36102de366004610f11565b610c4e565b604080516001600160a01b039097168752602087019590955293850192909252606084015215156080830152151560a082015260c00161018b565b61018161032c366004610f46565b610ca5565b61034461033f366004610f70565b610cd6565b60405161018b9190610f92565b610181600681565b6101f0610367366004610f70565b610d42565b610181624c4b4081565b61037e610d80565b60006001828154811061039357610393610fd6565b60009182526020909120600590910201600481015490915060ff16156103f15760405162461bcd60e51b815260206004820152600e60248201526d105b1c9958591e481c995c185a5960921b60448201526064015b60405180910390fd5b6004810154610100900460ff161561043f5760405162461bcd60e51b8152602060048201526011602482015270105b1c9958591e48191959985d5b1d1959607a1b60448201526064016103e8565b806003015442116104845760405162461bcd60e51b815260206004820152600f60248201526e4e6f7420796574206f76657264756560881b60448201526064016103e8565b60048101805461ff00191661010017905580546040516001600160a01b039091169083907f13b88e6866f0156d706fecfa22b678de5fc2b749c1d2307f6f47eb541385f1ec90600090a35050565b6104da610d80565b61050e6001600160a01b037f0000000000000000000000000000000000000000000000000000000000000000163383610dad565b60405181815233907f6f07e6169c1653554eb707b6f6cd8f7ccf9cc29e54a0d8a71d9d5867d2057ac2906020015b60405180910390a250565b61054f610d80565b6105596000610e11565b565b604051630d47875d60e41b815233600482015260009081906001600160a01b037f0000000000000000000000000000000000000000000000000000000000000000169063d47875d090602401602060405180830381865afa1580156105c4573d6000803e3d6000fd5b505050506040513d601f19601f820116820180604052508101906105e89190610fec565b905060006105f582610b9c565b9050600081116106375760405162461bcd60e51b815260206004820152600d60248201526c53636f726520746f6f206c6f7760981b60448201526064016103e8565b6000841180156106475750808411155b6106935760405162461bcd60e51b815260206004820152601960248201527f416d6f756e7420657863656564732074696572206c696d69740000000000000060448201526064016103e8565b6040516370a0823160e01b815230600482015284907f00000000000000000000000000000000000000000000000000000000000000006001600160a01b0316906370a0823190602401602060405180830381865afa1580156106f9573d6000803e3d6000fd5b505050506040513d601f19601f8201168201806040525081019061071d9190610fec565b101561075f5760405162461bcd60e51b8152602060048201526011602482015270125b9cdd59999a58da595b9d081c1bdbdb607a1b60448201526064016103e8565b60006127106107706105dc8761101b565b61077a9190611038565b9050600061078b621275004261105a565b600180546040805160c0810182523380825260208083018d81528385018a81526060850189815260006080870181815260a088018281528a8c018c558b835297517fb10e2d527612073b26eecdfd717e6a320cf44b4afac2b0732d9fcbe2b7fa0cf660058c0290810180546001600160a01b0319166001600160a01b0393841617905595517fb10e2d527612073b26eecdfd717e6a320cf44b4afac2b0732d9fcbe2b7fa0cf787015593517fb10e2d527612073b26eecdfd717e6a320cf44b4afac2b0732d9fcbe2b7fa0cf886015591517fb10e2d527612073b26eecdfd717e6a320cf44b4afac2b0732d9fcbe2b7fa0cf985015590517fb10e2d527612073b26eecdfd717e6a320cf44b4afac2b0732d9fcbe2b7fa0cfa9093018054965161ffff1990971693151561ff0019169390931761010096151596909602959095179091558284526002825293832080549687018155835290912090930182905590975091925061091d917f0000000000000000000000000000000000000000000000000000000000000000169088610dad565b6040805187815260208101849052908101829052339086907ff6cc19e46a340ab5888d736bfc79aef72ae92d12d7b76319d72b0abc170868e69060600160405180910390a350505050919050565b6040516370a0823160e01b81523060048201526000907f00000000000000000000000000000000000000000000000000000000000000006001600160a01b0316906370a0823190602401602060405180830381865afa1580156109d2573d6000803e3d6000fd5b505050506040513d601f19601f820116820180604052508101906109f69190610fec565b905090565b600060018281548110610a1057610a10610fd6565b6000918252602090912060059091020180549091506001600160a01b03163314610a6c5760405162461bcd60e51b815260206004820152600d60248201526c2737ba103cb7bab9103637b0b760991b60448201526064016103e8565b600481015460ff1615610ab25760405162461bcd60e51b815260206004820152600e60248201526d105b1c9958591e481c995c185a5960921b60448201526064016103e8565b6004810154610100900460ff1615610afd5760405162461bcd60e51b815260206004820152600e60248201526d131bd85b88191959985d5b1d195960921b60448201526064016103e8565b600081600201548260010154610b13919061105a565b9050610b4a6001600160a01b037f000000000000000000000000000000000000000000000000000000000000000016333084610e61565b60048201805460ff19166001179055604051339084907f512d3e65b3e58c2187bb1872aa435dba5bd09c1c03823ba56ab70aac411e4a2190610b8f9085815260200190565b60405180910390a3505050565b60006101f48210610bb15750624c4b40919050565b6101908210610bc45750621e8480919050565b61012c8210610bd757506207a120919050565b506000919050565b610be7610d80565b610c1c6001600160a01b037f000000000000000000000000000000000000000000000000000000000000000016333084610e61565b60405181815233907f32173d8e51cec3a6fe484b7a1c3febe760cdf96e03d4cca36a43563a4333e8389060200161053c565b60018181548110610c5e57600080fd5b6000918252602090912060059091020180546001820154600283015460038401546004909401546001600160a01b0390931694509092909160ff8082169161010090041686565b60026020528160005260406000208181548110610cc157600080fd5b90600052602060002001600091509150505481565b6001600160a01b038116600090815260026020908152604091829020805483518184028101840190945280845260609392830182828015610d3657602002820191906000526020600020905b815481526020019060010190808311610d22575b50505050509050919050565b610d4a610d80565b6001600160a01b038116610d7457604051631e4fbdf760e01b8152600060048201526024016103e8565b610d7d81610e11565b50565b6000546001600160a01b031633146105595760405163118cdaa760e01b81523360048201526024016103e8565b6040516001600160a01b03838116602483015260448201839052610e0c91859182169063a9059cbb906064015b604051602081830303815290604052915060e01b6020820180516001600160e01b038381831617835250505050610ea0565b505050565b600080546001600160a01b038381166001600160a01b0319831681178455604051919092169283917f8be0079c531659141344cd1fd0a4f28419497f9722a3daafe3b4186f6b6457e09190a35050565b6040516001600160a01b038481166024830152838116604483015260648201839052610e9a9186918216906323b872dd90608401610dda565b50505050565b600080602060008451602086016000885af180610ec3576040513d6000823e3d81fd5b50506000513d91508115610edb578060011415610ee8565b6001600160a01b0384163b155b15610e9a57604051635274afe760e01b81526001600160a01b03851660048201526024016103e8565b600060208284031215610f2357600080fd5b5035919050565b80356001600160a01b0381168114610f4157600080fd5b919050565b60008060408385031215610f5957600080fd5b610f6283610f2a565b946020939093013593505050565b600060208284031215610f8257600080fd5b610f8b82610f2a565b9392505050565b6020808252825182820181905260009190848201906040850190845b81811015610fca57835183529284019291840191600101610fae565b50909695505050505050565b634e487b7160e01b600052603260045260246000fd5b600060208284031215610ffe57600080fd5b5051919050565b634e487b7160e01b600052601160045260246000fd5b808202811582820484141761103257611032611005565b92915050565b60008261105557634e487b7160e01b600052601260045260246000fd5b500490565b808201808211156110325761103261100556fea2646970667358221220396860d4e068462544e844e1fbc3796136dbbd472713b7016df22a46749178b164736f6c63430008140033",
  "linkReferences": {},
  "deployedLinkReferences": {}
}